S00C0000436F64652E737265639D
S113000014C0F5C02DC02CC02BC02AC062C328C0A8
S113001027C026C025C024C023C022C021C020C0C0
S11300201FC01EC01DC01CC01BC011241FBECFE5B5
S1130030D1E0DEBFCDBF10E0A0E6B0E0E4EDFBE030
S113004002C005900D92A03AB107D9F720E0A0EACA
S1130050B0E001C01D92AD3CB207E1F780D4B8C551
S1130060CFCFE7ECF0E03197F1F700C0000098B390
S11300709F70282F207F922B98BBC198C298C39A57
S1130080F2E0FA95F1F700C0C39895E39A95F1F779
S1130090000098B39F708295807F892B88BBC39A98
S11300A0E2E0EA95F1F700C0C3980895E7ECF0E0C8
S11300B03197F1F700C0000098B39F70282F207F7C
S11300C0922B98BBC19AC298C39AF2E0FA95F1F7C1
S11300D000C0C39895E39A95F1F7000098B39F7018
S11300E08295807F892B88BBC39AE2E0EA95F1F779
S11300F000C0C39808958EEF87BBC3988FE99FE033
S11301000197F1F700C0000083E3ABDF87EC90E0D8
S11301100197F1F700C0000082E3A3DF87EC90E0D1
S11301200197F1F700C0000088E29BDF87EC90E0C4
S11301300197F1F700C000008EE093DF87EC90E0B8
S11301400197F1F700C0000081E08BDF8FE99FE0A9
S11301500197F1F700C0000086E083DF87EC90E0B0
S11301600197F1F700C000000895CF93DF9300D00A
S113017000D0CDB7DEB790E8998390EC9A8394E9E8
S11301809B8394ED9C83FE01E60FF11D81509081C9
S1130190890F67DF87EC90E00197F1F700C000005A
S11301A00F900F900F900F90DF91CF9108950F93C0
S11301B01F93CF938C01FC018081882349F0C0E018
S11301C075DFCF5FF801EC0FF11D80818111F8CF4D
S11301D08CE047DFCF911F910F91089581E041DFBB
S11301E08FE99FE00197F1F700C0000008951F9286
S11301F00F920FB60F9211242F938F939F93809198
S11302006100813021F482E0809361000FC082306C
S113021021F483E08093610009C0833021F484E0F9
S11302208093610003C081E0809361001092A1007B
S11302301092A0002FEF80E792E021508040904080
S1130240E1F700C0000082990BC02FEF81EE94E02B
S1130250215080409040E1F700C00000829BF5CF20
S11302609F918F912F910F900FBE0F901F90189513
S11302708091A0009091A100892B61F462E089E053
S113028074DF84E690E093DF81E090E09093A10036
S11302908093A00080916100813069F462E089E07C
S11302A064DF8FE59AEE0197F1F700C0000083E761
S11302B090E07DDF0895823069F462E089E055DFE3
S11302C08FE59AEE0197F1F700C000008AE790E00D
S11302D06EDF0895833069F462E089E046DF8FE5DC
S11302E09AEE0197F1F700C000008EE790E05FDF1F
S11302F0089562E089E039DF8FE59AEE0197F1F71E
S113030000C0000086E890E052DF0895CF93DF93A9
S1130310EC0162E081E029DF8AE690E048DFC13049
S1130320D10521F462E082E020DF09C0229721F4A4
S113033062E085E01ADF03C062E088E016DF8EE841
S113034090E035DFDF91CF91089583991FC08091AC
S11303506000813031F482E080936000839B0BC0A5
S113036015C0823021F483E080936000F7CF81E0F0
S113037080936000F3CF2FEF80E792E0215080401C
S11303809040E1F700C00000839BF5CF849921C021
S113039080916100823031F481E08093A200849BDB
S11303A00DC017C0833021F482E08093A200F7CF00
S11303B08430A9F783E08093A200F1CF2FEF80E788
S11303C092E0215080409040E1F700C00000849BFF
S11303D0F5CF8091600090E099DF08958091A200AC
S11303E0811102C0B2DF089583997CC080916000BE
S11303F0813071F48091B5009091B60001968831F6
S113040091050CF40AC11092B6001092B50023C0F5
S1130410823071F48091B7009091B80001968C33CA
S113042091050CF4FFC01092B8001092B70013C0ED
S1130430833089F48091B9009091BA0001968C338D
S113044091052CF49093BA008093B90004C01092E3
S1130450BA001092B900839914C02FEF80E792E09C
S1130460215080409040E1F700C000008091A50039
S11304709091A60001969093A6008093A500839B7B
S1130480ECCF8091A5009091A6000A973CF11092C0
S1130490A20080916000823071F08330B1F081302D
S11304A0E9F48091B5009091B60001979093B6005D
S11304B08093B50013C08091B7009091B800019764
S11304C09093B8008093B70009C08091B9009091CF
S11304D0BA0001979093BA008093B9001092A600D5
S11304E01092A50084997CC080916000813071F4E1
S11304F08091B5009091B60001970AF098C087E109
S113050090E09093B6008093B50023C0823071F4DC
S11305108091B7009091B80001970AF08DC08BE3E9
S113052090E09093B8008093B70013C0833089F4AF
S11305308091B9009091BA0001972AF09093BA0083
S11305408093B90006C08BE390E09093BA00809347
S1130550B900849914C02FEF80E792E021508040C5
S11305609040E1F700C000008091A5009091A600A2
S113057001969093A6008093A500849BECCF809174
S1130580A5009091A6000A973CF11092A2008091D8
S11305906000823071F08330B1F08130E9F48091F1
S11305A0B5009091B60001969093B6008093B50083
S11305B013C08091B7009091B80001969093B80051
S11305C08093B70009C08091B9009091BA00019658
S11305D09093BA008093B9001092A6001092A500DF
S11305E08091A200813039F481E090E09093A400DE
S11305F08093A3000895823039F482E090E09093D0
S1130600A4008093A30008958330D9F483E090E09C
S11306109093A4008093A30008959093B6008093D0
S1130620B50019CF9093B8008093B70014CF90937E
S1130630B6008093B5008DCF9093B8008093B70037
S113064088CF08958091BF009091C000883E934068
S11306506CF08091BD009091BE0001969093BE0015
S11306608093BD001092C0001092BF008091BD0025
S11306709091BE00CC978CF08091BB009091BC000F
S113068001969093BC008093BB001092BE00109220
S1130690BD001092C0001092BF008091BB009091E9
S11306A0BC00CC97ACF080916200909163000196FD
S11306B090936300809362001092BC001092BB0080
S11306C01092BE001092BD001092C0001092BF00A4
S11306D008951F920F920FB60F9211242F933F93F8
S11306E04F935F936F937F938F939F93AF93BF9336
S11306F0EF93FF938091BF009091C0000196909377
S1130700C0008093BF0083E882BF9CDFFF91EF911C
S1130710BF91AF919F918F917F916F915F914F9115
S11307203F912F910F900FBE0F901F90189562E08C
S113073081E01BDD80E990E03ADD1092B000109278
S1130740AF001092B4001092B3001092B200109255
S1130750B1001092A8001092A700C09A2091BF0087
S11307603091C00080E090E0283E43E034070CF074
S11307700196829B07C0839B05C0849B03C08C3376
S1130780910594F3C0980895EF92FF920F931F93ED
S1130790CF93DF937C018B01EA014AE061EC70E0C6
S11307A0E4D18AE0E816F1046CF461E081E0DDDC78
S11307B08BE990E0FCDC61E082E0D7DC81EC90E046
S11307C0F6DC06C061E081E0D0DC81EC90E0EFDC97
S11307D04AE061EC70E0C801C8D10A3011056CF43C
S11307E061E084E0C2DC8BE990E0E1DC61E085E07B
S11307F0BCDC81EC90E0DBDC06C061E084E0B5DCCD
S113080081EC90E0D4DC4AE061EC70E0CE01ADD143
S11308102A976CF461E087E0A8DC8BE990E0C7DC00
S113082061E088E0A2DC81EC90E0C1DC06C061E01C
S113083087E09BDC81EC90E0BADCDF91CF911F91E3
S11308400F91FF90EF9008958130910571F44091DC
S1130850BD005091BE006091BB007091BC008091BE
S113086062009091630090DF10C00297039768F4D0
S11308704091B9005091BA006091B7007091B800EE
S11308808091B5009091B6007FDF809162009091D5
S113089063002091AF003091B00082179307B1F448
S11308A04091BD005091BE002091B3003091B4003E
S11308B04217530759F44091BB005091BC0020915A
S11308C0B1003091B20042175307E9F02091A9001A
S11308D03091AA0082179307E9F42091BD0030916A
S11308E0BE008091AD009091AE002817390791F4B5
S11308F02091BB003091BC008091AB009091AC0082
S11309002817390739F48091A7009091A80001971E
S113091009F40DDF61E08DE028DC80E790E047DC3E
S113092061E083E022DC8DE990E041DC61E086E077
S11309301CDC8DE990E03BDC61E089E016DC089585
S1130940E199FECF1CBA8EBB6DBBE29AE19A089581
S1130950E199FECF8EBBE09A8DB390E00895CBDB96
S11309608FEF87BB11BA89B7826089BF83E083BFE9
S113097083E882BF8AE085BF80E48BBF78942EDC55
S113098061E081E0F2DB80E190E0E2DF8F3F9105FE
S113099051F183E190E0DCDF9093B0008093AF00ED
S11309A084E190E0D5DF9093B2008093B10085E1BB
S11309B090E0CEDF9093B4008093B30086E190E0A2
S11309C0C7DF9093AA008093A90087E190E0C0DF7D
S11309D09093AC008093AB0088E190E0B9DF9093F2
S11309E0AE008093AD0044DCC1E0D0E080916100B2
S11309F0813009F0B3C08091A3009091A4008130AC
S1130A00910549F58091B5009091B60090936300EB
S1130A10809362008091B7009091B8009093BC00DD
S1130A208093BB008091B9009091BA009093BE006E
S1130A308093BD001092B6001092B5001092B800D9
S1130A401092B7001092BA001092B9001092A4004C
S1130A501092A30080C082309105F1F51092A40099
S1130A601092A3006091B5007091B6007093B0002D
S1130A706093AF008091B7009091B8009093B2005A
S1130A808093B1008091B9009091BA009093B40022
S1130A908093B30083E190E053DF6091B1007091E3
S1130AA0B20084E190E04CDF6091B3007091B40037
S1130AB085E190E045DF1092B6001092B5001092E7
S1130AC0B8001092B7001092BA001092B900D093F7
S1130AD0A800C093A7003FC00397E9F51092A400B3
S1130AE01092A3006091B5007091B6007093AA00B3
S1130AF06093A9008091B7009091B8009093AC00E6
S1130B008093AB008091B9009091BA009093AE00AD
S1130B108093AD0086E190E013DF6091AB007091AB
S1130B20AC0087E190E00CDF6091AD007091AE0005
S1130B3088E190E005DF1092B6001092B5001092A3
S1130B40B8001092B7001092BA001092B900D09376
S1130B50A800C093A7001092A20001C03FDC88DB6C
S1130B608091610090E070DE41CFBB274A3031F4C0
S1130B70992322F4BDE2909581959F4F01C0BB2734
S1130B80FB015527AA27880F991FAA1FA41710F045
S1130B90A41B83955051B9F7A05DAA3308F0A95D51
S1130BA0A193009779F7B111B1931192CB0100C0D1
S1130BB0DC01FC01672F71917723E1F7329704C0C0
S1130BC07C916D9370836291AE17BF07C8F308954B
S1070BD0F894FFCFC3
S1130BD401010C002020202020202020202020207F
S1130BE42020004E6F726D616C0053657400416C7B
S1130BF461726D203100416C61726D2032005E00BF
S1130C04414C41524D2054494D450030003A0000B6
S9030000FC
